:020000040800F2
:1000000018A8002045010008FF0900080D08000895
:100010003D09000869040008C54F00080000000001
:10002000000000000000000000000000094D000872
:10003000C906000800000000E3010008392100089B
:100040005F0100085F0100085F0100085F01000810
:100050005F0100085F0100085F0100085F01000800
:100060005F0100085F0100085F0100085F010008F0
:100070005F0100085F0100085F0100085F010008E0
:100080005F0100085F0100085F0100085F010008D0
:100090005F0100085F0100085F0100085F010008C0
:1000A0005F0100085F0100085F0100085F010008B0
:1000B0005F0100085F0100085F0100085F010008A0
:1000C0005F0100085F0100085F0100085F01000890
:1000D0005F0100085F0100085F0100085F01000880
:1000E0005F0100085F0100085F0100085F01000870
:1000F0005F0100085F0100085F0100085F01000860
:100100005F0100085F0100085F0100085F0100084F
:100110005F0100085F0100085F0100085F0100083F
:100120005F0100085F0100085F0100085F0100082F
:10013000DFF80CD000F032F800480047E94F000823
:1001400018A800200648804706480047FEE7FEE75B
:10015000FEE7FEE7FEE7FEE7FEE7FEE7FEE7FEE777
:10016000F54D00083101000872B6704762B670475D
:10017000EFF3108072B6704780F31088704730BF7D
:10018000704720BF7047B0FA80F0704790FAA0F037
:10019000B0FA80F0704790FAA0F07047064C074D17
:1001A00006E0E06840F0010394E807009847103447
:1001B000AC42F6D3FFF7C0FFEC5000080C5100082A
:1001C00018484FF0FF010170002080F3098816489D
:1001D000016881F3088815484FF08051016062B6CC
:1001E000FEE772B6EFF3098028B1203880E8F00FFF
:1001F0000F490968086000B50E4880475DF804EBB8
:100200000D480E490A78027009480D490A680260D3
:10021000106890E8F00F203080F309884EF0040E4B
:1002200062B6704722ED00E0E400002004ED00E03B
:10023000DC000020C11C00087E0000207F000020A0
:10024000E00000201FB50020029015E002AB012263
:1002500011460A4800F008FB28B103AA4FF40071C8
:10026000074800F079FF03A8002114230A46CDE9CE
:100270000010084601F01EFEE8E7000000080140FB
:10028000E80000200EB500BF00F0DEF815E002A87F
:1002900001AB002211460090084800F04FFE2021DB
:1002A000074800F0A6FA20B12021054800F0AAFA7C
:1002B00003E02021024800F0A7FAE8E7E800002068
:1002C000000C01400EB500BF00F0BEF815E002A81A
:1002D00001AB002211460090084800F02FFE0121DA
:1002E000074800F086FA20B10121054800F08AFA9B
:1002F00003E00121024800F087FAE8E7E800002067
:10030000000C014070B58AB0064600F0A5F800F078
:10031000ADF800F099F8044630480068B4FBF0F5F9
:10032000284601F029FF00F015FB09A800F0D6FFD0
:1003300000F00AF909AB002229A12C4800F0A0FD29
:1003400009A8032100220592CDE906210890052085
:100350004FF400713322264BCDE90132CDE9031071
:1003600003200023234A24A10090274801F040F8ED
:1003700009A8032100220592CDE906210890052055
:100380004FF400713322214BCDE90132CDE9031046
:10039000042000231E4A1FA10090224801F028F8E3
:1003A00009A8032100220592CDE906210890052025
:1003B0004FF4007133221C4BCDE90310CDE901321B
:1003C00000900023194A1AA11D4801F011F809A94B
:1003D0001C4801F061F90AB070BD0000A850000887
:1003E00053656D4F664B657900000000E800002002
:1003F000F405002045020008417070205461736BC1
:10040000204B657900000000C0010020F40D0020A1
:1004100085020008417070205461736B204C656444
:10042000310000007C020020F4150020C502000805
:10043000417070205461736B204C65643200000081
:10044000380300200401002000B585B0684604F0A0
:10045000F1FB019805B000BD10B500F0FFF900F008
:100460005BFA04F06FFD10BD00BFFEE710B500F0B1
:10047000FBF800F003F800F0F3F810BD70B50026AB
:100480000020184908801849088018490860184950
:100490000860184908601849086018490860002475
:1004A00000BFFFF765FE064600BF00250BE00020F9
:1004B0001049086000F074F800F08CF80D480068EE
:1004C0000444681C85B2002DF1D00C480460002063
:1004D000084908600849086000BF3046FFF74CFE35
:1004E00000BF70BD180000201A0000201C00002072
:1004F00020000020280000202C00002024000020E4
:1005000001460846044A1268904203D9024A12681A
:10051000801A00E0002070472400002070B50025FC
:1005200000BFFFF725FE054600BF0648046800BF70
:100530002846FFF721FE00BF2046FFF7E1FF0646F1
:10054000304670BD2800002070B50025FFF7E6FF9B
:10055000044600BFFFF70CFE054600BF002004491B
:10056000086000BF2846FFF707FE00BF204670BDA9
:100570002800002070B5002500BFFFF7F9FD0546F3
:1005800000BF0648046800BF2846FFF7F5FD00BF1E
:100590002046FFF7B5FF0646304670BD2C00002010
:1005A00010B509480088401C0749088007480088A2
:1005B00018B900F083F80649086004480088401C18
:1005C0000249088010BD0000180000201A00002019
:1005D0001C00002010B50F480088401E0D490880FF
:1005E00008460088A0B900F069F80B490860084681
:1005F00000680A490968441A09480068A04201D203
:100600000748046007480068A04201D2054804601A
:1006100010BD00001A000020200000201C00002057
:10062000280000202C00002010B5002400BF00BFCF
:10063000FFF79EFD044600BFFFF7B2FF00BF102189
:10064000064800F07DF900BFFFF7C4FF00BF204659
:10065000FFF792FD00BF00BF10BD0000F41D002099
:1006600010B5FFF7E1FF10BD10B50020024908608A
:1006700000F00AF810BD00001400002001490860D5
:10068000704700001400002010B50A48006840F0D0
:1006900080700849086000200749486008460068E3
:1006A00040F001000860FFF7CFFE04462046FFF748
:1006B000E5FF10BDFCED00E0001000E001484068DF
:1006C00070470000001000E070472DE9F04102463D
:1006D00000250026002000230024002791F803C0F5
:1006E0000CF00F0591F803C00CF0100CBCF1000FDA
:1006F00003D091F802C04CEA050591F800C0BCF1A6
:10070000000F31D0146800202BE04FF0010C0CFAE0
:1007100000F3B1F800C00CEA03069E4220D183002A
:100720004FF00F0C0CFA03F7BC4305FA03FC4CEA3C
:10073000040491F803C0BCF1280F06D14FF0010C5E
:100740000CFA00FCC2F814C00AE091F803C0BCF136
:10075000480F05D14FF0010C0CFA00FCC2F810C094
:10076000401C0828D1D31460B1F800C0BCF1FF0FC1
:1007700034DD546800202EE000F1080C4FF0010831
:1007800008FA0CF3B1F800C00CEA03069E4221D12E
:1007900083004FF00F0C0CFA03F7BC4305FA03FC7F
:1007A0004CEA040491F803C0BCF1280F05D100F114
:1007B000080C08FA0CF8C2F8148091F803C0BCF1D8
:1007C000480F07D100F1080C4FF0010808FA0CF8A7
:1007D000C2F81080401C0828CED35460BDE8F081D8
:1007E0000246002093680B400BB1012000E000207E
:1007F000704702460020D3680B400BB1012000E097
:1008000000207047416170470161704700BFFEE7FB
:1008100008B50121042004F0FDF90120ADF8000025
:1008200028208DF8030069460148FFF74EFF08BDF8
:100830000008014008B50121102004F0EBF94FF445
:100840000050ADF8000028208DF8030069460248EA
:10085000FFF73BFF08BD00000010014010B5FFF797
:10086000D7FFFFF7E7FF10BD2DE9FE430746884697
:1008700014461D464FF0000941463846FFF7B0FFC9
:100880000646A64211D102A8002114230A46CDE94A
:100890000010084601F00EFB41463846FFF7A0FF66
:1008A0000646A64201D101202870A64205D028782C
:1008B000012802D18146002028704846BDE8FE8309
:1008C00008B50121082004F0A5F92020ADF80000AA
:1008D00010208DF8030003208DF8020069460D48B2
:1008E000FFF7F3FE0121082004F094F90120ADF890
:1008F000000069460748FFF7E8FE0121082004F0E0
:1009000089F90220ADF8000069460248FFF7DDFED4
:1009100008BD0000000C014010B5FFF7D1FF2021F9
:100920000548FFF771FF01210348FFF76DFF022122
:100930000148FFF769FF10BD000C014000BFFEE752
:1009400030B505460C4622460021284600F026F820
:1009500030BD00000D480E49016001464160002194
:100960008160C160016141618161C16101620163B6
:10097000C162416207498163C1634FF4D841016498
:1009800041640146044A116070470000041E0020C3
:10099000484541504C1E0020300000202DE9F04118
:1009A00003460C4617460FB9BDE8F08103B9FBE7D3
:1009B0000025002202E02D022543521C042AFAD30E
:1009C000384603F0030C1946BCF1000F08D062460C
:1009D00003E001F8014B401E521C08B1042AF8D371
:1009E0000E4601E020C6001F0428FBD2314602E07B
:1009F00001F8014B401E0028FAD100BFD4E7704730
:100A00007047000010B50348006810B10148006845
:100A1000804710BD4400002070B5044600F0C0F8C7
:100A200000204749087047490870474908704749FE
:100A300008604749086047490870474908704749B6
:100A400008704749086047490860474908604749B6
:100A50000870474800680A21B0FBF1F0454908607A
:100A60004548006858B14548056845B142480668A0
:100A700003E0761E002028602D1D002EF9D10020F5
:100A80003F4908603F4908603F4908603F490860A6
:100A90003F4908603F4908603F4908603F49087086
:100AA00002F0CCF902F0C6FA204601F07DFB208866
:100AB00000B170BD204601F093FF208800B1F8E737
:100AC000204601F095FF208800B1F2E7204602F0B1
:100AD00079F8208800B1ECE7204602F0DFF92088A1
:100AE00000B1E6E7204602F02BFC208800B1E0E7E9
:100AF000204602F049FE208800B1DAE7204601F0E6
:100B0000DBFE208800B1D4E7204601F0E5FC208818
:100B100000B1CEE7204603F091FE208800B1C8E77F
:100B2000204602F0AFFD208800B1C2E7204603F066
:100B3000E1FE208800B1BCE7FFF762FF00BFB8E725
:100B4000580000206000002090000020DC00002001
:100B5000E00000207E0000207F00002080000020B8
:100B600084000020880000208C00002098000020D5
:100B7000A850000894000020785000087450000825
:100B8000380000203C0000204000002044000020ED
:100B9000480000204C00002050000020BE00002033
:100BA0000A4A1168002002E0002204C1401C084AE1
:100BB00012689042F8D3054A1268054B1B6802EB95
:100BC0008302121F034B1A60704700007450000824
:100BD00078500008E400002010B500242E4800786A
:100BE000012800D010BD00BFFFF7C2FA044600BFC5
:100BF0002A48007828B900BF2046FFF7BDFA00BF99
:100C0000F0E726480078401E24490870084600781E
:100C1000002805DD00BF2046FFF7AEFA00BFE1E780
:100C20001F480078002805DD00BF2046FFF7A4FA22
:100C300000BFD7E702F0EEF81A49087008460078BE
:100C400000EB4000184951F8200018490860084698
:100C5000006817490968884205D100BF2046FFF7A0
:100C60008BFA00BFBEE711480068D0F89000401C26
:100C70000E490968C1F890000E480068401C0D49F3
:100C800008604FF080500C49086000BF2046FFF715
:100C900073FA00BF00BFA5E76000002058000020E5
:100CA000900000207F00002060A00020E0000020D5
:100CB000DC000020B800002004ED00E010B50024A6
:100CC00020480078002800DD10BD1F48007800286B
:100CD00000DDF9E700BFFFF74BFA044600BF02F062
:100CE00099F81A4908700846007800EB4000184946
:100CF00051F820001749086008460068164909683D
:100D0000884205D100BF2046FFF736FA00BFDBE777
:100D100010480068D0F89000401C0E490968C1F8DE
:100D200090000E480068401C0C4908604FF080504D
:100D30000B49086000BF2046FFF71EFA00BF00BF46
:100D4000C2E7000058000020900000207F00002033
:100D500060A00020E0000020DC000020B80000209F
:100D600004ED00E070B5044600251A48007800281C
:100D700003DD46F66250208070BD174800780128D8
:100D800003D045F689602080F6E714480078FA28F9
:100D900003DB45F209202080EEE700BF00BFFFF72C
:100DA000E7F9054600BFFFF7FBFB00BF0B480078E3
:100DB000401C0A49087002F021FA00BFFFF70AFC44
:100DC00000BF2846FFF7D8F900BF00BF00202080F1
:100DD00000BFD1E7580000206000002090000020F4
:100DE00070B50446002523480078002803DD46F648
:100DF0006550208070BD20480078012803D045F65A
:100E000089602080F6E71D48007818B946F66450DE
:100E10002080EFE700BF00BFFFF7AAF9054600BF3B
:100E2000FFF7BEFB00BF15480078401E134908704D
:100E30000846007800280CDD00BFFFF7CBFB00BFA1
:100E40002846FFF799F900BF00BF46F6635020809F
:100E5000D0E702F0E1F900BFFFF7BCFB00BF284676
:100E6000FFF78AF900BF00BFFFF728FF00202080AE
:100E700000BFBFE758000020600000209000002065
:100E80002DE9F04104460D4616461F464FF0000876
:100E900000BF00BF00BFFFF76BF9804600BFFFF740
:100EA0007FFB00BF22480078401C2149087008469B
:100EB0000078012801D102F0A1F900BFFFF78AFBF9
:100EC00000BF4046FFF758F900BF00BF00BF1948F8
:100ED000206066610020A061656004F1080001F0F7
:100EE000BAFE15480088401C1349088000BF00BFA7
:100EF00000BFFFF73DF9804600BFFFF751FB00BF81
:100F00000B480078401E0A4908700846007808B966
:100F100002F082F900BFFFF75DFB00BF4046FFF71C
:100F20002BF900BF00BF00BF00203880BDE8F08172
:100F30009000002053454D419A0000202DE9F047D4
:100F400088B00646894690461C46109D4FF0000A20
:100F50007D480078002806DD46F2AE10288000208B
:100F600008B0BDE8F08726B945F6C35028800020B8
:100F7000F6E7B8F1000F03D0B8F5004F02D100E05A
:100F800000BF04E045F6256028800020E8E700BFA8
:100F90006E493068884204D045F6C450288000204D
:100FA000DEE70CB10020206000BF00BFFFF7E0F8D3
:100FB000824600BFFFF7F4FA00BF706998B170690C
:100FC000401E70610CB1B0692060776900BFFFF707
:100FD00001FB00BF5046FFF7CFF800BF00BF002065
:100FE00028803846BCE708F4004070B1776900BF3C
:100FF000FFF7F0FA00BF5046FFF7BEF800BF00BF92
:1010000046F2B01028803846AAE7514800780028F8
:101010000DDD00BFFFF7DEFA00BF5046FFF7ACF86A
:1010200000BF00BF46F663502880002098E700BF4D
:1010300047480078401C4649087008460078012857
:1010400001D102F0DBF800BFFFF7C4FA00BF504641
:10105000FFF792F800BF00BF00BF4B4606223146A3
:10106000684601F0B7FD00BF00BF00BFFFF780F882
:10107000824600BFFFF794FA00BF35480078401E53
:10108000334908700846007808B902F0C5F800BF77
:10109000FFF7A0FA00BF5046FFF76EF800BF00BF91
:1010A00000BFFFF70BFE00BF00BFFFF761F88246ED
:1010B00000BFFFF775FA00BF2648006890F83500BA
:1010C00030B101280CD002281AD0032821D110E019
:1010D0001CB120480068006C20600020288026E0B9
:1010E0001CB11C480068006C206046F2A9102880E2
:1010F0001DE00CB10020206047F2D920288016E0C6
:101100001CB114480068006C206045F6C25028806D
:101110000DE046F62E60288000BFFFF75BFA00BFA7
:101120005046FFF729F800BF00BF002018E700BFB6
:10113000776900BFFFF74EFA00BF5046FFF71CF873
:1011400000BF00BF38460BE75800002053454D4113
:1011500090000020DC0000202DE9FF4105460F46ED
:10116000144635B945F6C3502080002004B0BDE8D0
:10117000F0814FB1B7F5007F07D0B7F5004F05D02C
:10118000B7F5024F04D102E000BF00BF00BF04E08A
:1011900045F6256020800020E8E700BF1249286856
:1011A000884204D045F6C45020800020DEE7FFF7D7
:1011B00085FA06460D48007800280CDD002003461D
:1011C00002462946CDE9017603940090064801F0D5
:1011D000BBF90020CAE7234632463946284602F0CA
:1011E000B7F880464046C1E753454D4158000020BE
:1011F00010B5044612480078E8B901F00BFE114919
:10120000087008460078104908700E48007800EB16
:1012100040000E4951F820000D490860084600685A
:101220000C490860012006490870FEF7C9FF43F623
:101230009920208002E045F68A60208010BD0000E1
:10124000600000207F0000207E00002060A00020C1
:10125000E0000020DC00002070B50446002500BF3F
:1012600000BFFEF785FF054600BFFFF799F900BFF5
:10127000002011490860114908801149088011496E
:101280000860114908601149086011490860114956
:1012900008601149088100BFFFF79CF900BF28468C
:1012A000FEF76AFF00BF00BF03F090F903F018FCDF
:1012B0000020208070BD0000740000206E0000201F
:1012C000A0000020B4000020C4000020CC000020BA
:1012D0005C0000208800002054A00020F8B50446DF
:1012E00000266946364800F0BBFCBDF8000018B186
:1012F000BDF800002080F8BD6A460021022000F001
:1013000031FDBDF8000018B1BDF800002080F2E703
:1013100000BF00BFFEF72CFF064600BFFFF740F9F5
:1013200000BF00202749086000BFFFF753F900BF46
:101330003046FEF721FF00BF00BF002522480068AD
:1013400022490968884205D91F4800681F49096871
:10135000B0FBF1F525B91C4800680A21B0FBF1F596
:101360006A460021284600F0FDFC6946144800F05A
:101370009FFABDF8000018B1BDF800002080BAE760
:1013800000BF00BFFEF7F4FE064600BFFFF708F9F6
:1013900000BF00200E4908600A4800680D49086037
:1013A00001200D49087000BFFFF714F900BF304657
:1013B000FEF7E2FE00BF00BF0020208000BF9AE7DA
:1013C00058A30020A4000020A85000089050000856
:1013D000B4000020A8000020B000002010B5034891
:1013E000006810B101480068804710BD4800002027
:1013F0002DE9FF4F87B004469046DDE91BA5DDE9E6
:101400001496179F0020039094480078002805DD6B
:1014100047F24A1028800BB0BDE8F08F1CB947F2A4
:10142000AD102880F7E7B8F1000F03D147F24F1055
:101430002880F0E71EB946F62F602880EBE7884841
:101440000068874203D246F630602880E3E71698AA
:10145000B84203D346F631602880DCE7B9F1200FAB
:1014600003D346F273202880D5E7B9F1000F06D1E7
:101470007C48844203D046F273202880CBE7B9F140
:101480001F0F06D17848844203D046F2732028808B
:10149000C1E7204602F084F9002028800AF001000C
:1014A00090B10AF0020078B105960020069008E09D
:1014B0000021059801600598001D05900698401CC4
:1014C00006900698B842F3D3169806EB8000049075
:1014D000CDE9007A32464046049B0A9900F060FB51
:1014E0000590C4F828800A98E0620898206284F881
:1014F0003790059820600498A06019986065199845
:1015000018B95A480068A06501E01998A0651A98B2
:1015100060606662A763A4F83CA04FF0000B08E08F
:10152000002104F17C0040F82B100BF1010000F0C9
:10153000FF0BBBF1000FF3D004F16400189901F028
:10154000B7FA204600F09CF800BF00BF00BFFEF7CE
:101550000FFE039000BFFFF723F800BF4448007858
:10156000401C4349087008460078012801D101F069
:1015700045FE00BFFFF72EF800BF0398FEF7FCFD05
:1015800000BF00BF00BF94F8370001F063FC2046A5
:1015900001F098FD37480088401C364908803648DD
:1015A0000078012837D000BF00BF00BFFEF7E0FD84
:1015B000039000BFFEF7F4FF00BF2D480078401EE7
:1015C0002B49087008460078D0B901F025FE2B4859
:1015D000008800280BDD00BFFEF7FCFF00BF03986A
:1015E000FEF7CAFD00BF00BF01F0DAFD11E000BF49
:1015F000FEF7F0FF00BF0398FEF7BEFD00BF08E056
:1016000000BFFEF7E7FF00BF0398FEF7B5FD00BF80
:1016100000BF00BFFFE600BF00BF00BFFEF7A8FD90
:10162000039000BFFEF7BCFF00BF11480078401ECA
:101630000F4908700846007808B901F0EDFD00BFB9
:10164000FEF7C8FF00BF0398FEF796FD00BF00BF7E
:1016500000BFFFF733FB00BFDDE6000058000020AD
:10166000A4500008989F0020DC9E002094000020D9
:1016700090000020BC000020600000206C000020D2
:1016800010B504460348006818B1204601490968AE
:10169000884710BD3800002070B504460D4600266E
:1016A00076480078002803DD47F24E10288070BD90
:1016B0007348844203D147F24C102880F7E7714801
:1016C000844203D147F24D102880F0E79CB900BF57
:1016D00000BFFEF74DFD064600BFFEF761FF00BFED
:1016E0006948046800BFFEF775FF00BF3046FEF78B
:1016F00043FD00BF00BF00BF00BF00BFFEF738FDC5
:10170000064600BFFEF74CFF00BF60480078401C53
:101710005E49087008460078012801D101F06EFD8D
:1017200000BFFEF757FF00BF3046FEF725FD00BFA4
:1017300000BF00BF94F8360008282DD2DFE800F083
:1017400004090E10080A0F11204601F0FBFC5EE0B0
:101750005DE000BF204602F01DFF58E000BF00BF63
:1017600000BF204602F016FF94F83400082810D27B
:10177000DFE800F004070508090A0B0600BF00BFF8
:1017800008E000BF00BF00BF00BF204601F09BFA89
:1017900000E000BF00BF3AE000BF00BF00BFFEF79F
:1017A000E7FC064600BFFEF7FBFE00BF37480078A7
:1017B000401E3649087008460078D0B901F02CFD6B
:1017C0003348008800280BDD00BFFEF703FF00BF91
:1017D0003046FEF7D1FC00BF00BF01F0E1FC11E094
:1017E00000BFFEF7F7FE00BF3046FEF7C5FC00BFA6
:1017F00008E000BFFEF7EEFE00BF3046FEF7BCFC7F
:1018000000BF00BF00BF46F62D6028804FE700BF35
:1018100004F1640001F02AF9204600F03DF81D486B
:101820000088401E1B490880204601F0B9FFFF20B8
:1018300084F8360000BF00BF00BFFEF799FC0646E3
:1018400000BFFEF7ADFE00BF10480078401E0F49F4
:1018500008700846007808B901F0DEFC00BFFEF70A
:10186000B9FE00BF3046FEF787FC00BF00BF00BFD7
:1018700000202880FFF722FA00BF18E75800002058
:10188000DC9E0020989F0020DC00002090000020BB
:101890006C000020BC00002010B50446034800681E
:1018A00018B1204601490968884710BD3C00002056
:1018B0007FB504460D46002600BF00BFFEF758FC6A
:1018C000064600BFFEF76CFE00BF1CB1174800685B
:1018D00084420CD100BFFEF77DFE00BF3046FEF70C
:1018E0004BFC00BF00BF47F2571028807FBD00BFF0
:1018F000FEF770FE00BF3046FEF73EFC00BF00BFA3
:101900000B48007800280BDD002000900190034672
:1019100002462146CDE90205064800F015FEE5E73E
:101920002946204602F0DEF800BFDFE7DC00002099
:10193000580000205452455310B50446034800682F
:1019400018B1204601490968884710BD40000020B1
:101950002DE9F04780460E4614461D464FF000091B
:101960008C480078002805DD46F2AE102880002063
:10197000BDE8F0871EB1B6F5004F02D100E000BF10
:1019800004E045F6256028800020F1E700BF0CB197
:101990000020206000BF00BFFEF7EAFB814600BFC9
:1019A000FEF7FEFD00BF7C480068406CB8B37A4883
:1019B0000068406C401E78490968486476480068B1
:1019C000476C1CB174480068006C2060FEF776FE1E
:1019D00071490968096C401A6F490968C1F8A40087
:1019E0006D480068D0F8A8006B490968D1F8A410C8
:1019F000884207D268480068D0F8A40066490968A0
:101A0000C1F8A80000BFFEF7E5FD00BF4846FEF79D
:101A1000B3FB00BF00BF002028803846A8E7FFE7DF
:101A200006F4004068B100BFFEF7D4FD00BF484691
:101A3000FEF7A2FB00BF00BF46F2B01028800020D6
:101A400096E75648007800280DDD00BFFEF7C2FD7E
:101A500000BF4846FEF790FB00BF00BF46F663504C
:101A60002880002084E700BF4C480078401C4B4988
:101A7000087008460078012801D101F0BFFB00BFC3
:101A8000FEF7A8FD00BF4846FEF776FB00BF00BF8B
:101A900000BF434607220021084601F09BF800BF23
:101AA00000BF00BFFEF764FB814600BFFEF778FD74
:101AB00000BF3A480078401E384908700846007850
:101AC00008B901F0A9FB00BFFEF784FD00BF48463E
:101AD000FEF752FB00BF00BF00BFFFF7EFF800BFEB
:101AE00000BFFEF745FB814600BFFEF759FD00BF72
:101AF0002948006890F8350020B1012826D0032835
:101B000034D12CE0FCB124480068006C2060FEF762
:101B1000D5FD21490968096C401A1F490968C1F8B7
:101B2000A4001D480068D0F8A8001B490968D1F836
:101B3000A410884207D218480068D0F8A4001649BB
:101B40000968C1F8A8000020288013E01CB11248E1
:101B50000068006C206046F2A91028800AE00CB1F1
:101B60000020206047F2D920288003E046F62E604E
:101B7000288000BF00BF08480068476C00BFFEF720
:101B800029FD00BF4846FEF7F7FA00BF00BF384600
:101B9000EEE6000058000020DC000020900000204D
:101BA000F0B50446DDE9055602EB85004FF0807C78
:101BB000071F3846C7F800C0071F38463C60DFF8EB
:101BC0009CC0071F3846C7F800C04FF0123C071FE3
:101BD0003846C7F800C04FF0033C071F3846C7F827
:101BE00000C04FF0023C071F3846C7F800C0071F6F
:101BF00038463B60071F384639604FF0113C071FDD
:101C00003846C7F800C04FF0103C071F3846C7F8E9
:101C100000C04FF0093C071F3846C7F800C04FF01E
:101C2000083C071F3846C7F800C04FF0073C071FA5
:101C30003846C7F800C04FF0063C071F3846C7F8C3
:101C400000C04FF0053C071F3846C7F800C04FF0F2
:101C5000043C071F3846C7F800C0F0BD613C0008CF
:101C60007FB505460C461248854203D147F25B100A
:101C700020807FBD0F48854203D147F25C10208051
:101C8000F7E70D48007800280BDD00200090019058
:101C9000034602462946CDE90204084800F054FCF8
:101CA000E7E72146284602F0BBFA00BFE1E7000063
:101CB000DC9E0020989F002058000020545355536C
:101CC00070B52448006810B1224800688047FEF7CC
:101CD000F5FC04462048006820490968884215D070
:101CE0001D480068D0F89800201A1B490968C1F8FF
:101CF000940019480068D0F89C0017490968D1F889
:101D00009410084414490968C1F89C0013480068FD
:101D1000C0F89840FEF718FC05460F480068D0F858
:101D2000B400A84203D20C480068C0F8B4500A4876
:101D30000068D0F8B8000A490968884205D2084806
:101D4000006805490968C1F8B80000200449086026
:101D500070BD00004C000020DC000020E0000020EE
:101D60008C0000202DE9F04105460E461446002760
:101D70004D480078002804DD47F275202080BDE83A
:101D8000F0814A480078002803DD46F66350208041
:101D9000F5E736B1022E05D0042E0AD0082E09D15F
:101DA00001E000BF00BF1DB947F27E202080E6E7BA
:101DB00004E003E045F625602080E0E700BF00BFB7
:101DC00000BF00BFFEF7D4F9074600BFFEF7E8FBEF
:101DD00000BF36480078401C344908700846007837
:101DE000012801D101F00AFA00BFFEF7F3FB00BFA2
:101DF0003846FEF7C1F900BF00BF00BF01202C49E3
:101E0000096881F83600234632462946284800688A
:101E100002F0E2FA2088F0B100BF00BF00BFFEF779
:101E2000A7F9074600BFFEF7BBFB00BF1F480078BD
:101E3000401E1E4908700846007808B901F0ECF908
:101E400000BFFEF7C7FB00BF3846FEF795F900BF9D
:101E500000BF00BF93E71648006801F073F900BFA8
:101E600000BF00BFFEF784F9074600BFFEF798FBEE
:101E700000BF0E480078401E0C49087008460078E4
:101E800008B901F0C9F900BFFEF7A4FB00BF38464E
:101E9000FEF772F900BF00BF00BFFEF70FFF002082
:101EA000208000BF6BE70000580000209000002059
:101EB000DC0000202DE9FF5F05460E4617469846D8
:101EC000DDE90EA40020009081480078002804DDA0
:101ED00047F275202080BDE8FF9F7E4800780028EB
:101EE00003DD46F663502080F5E70AF00E0BBBF1E8
:101EF000000F09D0BBF1020F07D0BBF1040F10D0C7
:101F0000BBF1080F0ED101E000BF00BFB8F1000F18
:101F100006D12FB926B91DB947F27E202080DAE715
:101F200004E003E045F625602080D4E700BF2AF0F6
:101F30001E0008B1012000E0002003900398012852
:101F400003D145F625602080C5E7CAF30010029052
:101F50000298C0B9B8F57A7F03D347F27B2020807E
:101F6000B9E73B2F03DD47F27A202080B3E73B2E11
:101F700003DD47F279202080ADE7632D12DD47F2C3
:101F800078202080A7E742F20F70864203DD47F2F7
:101F9000792020809FE7B5F57A7F03DB47F2782030
:101FA000208098E74C48D0F800904FF4FA70B0FBCE
:101FB000F9F0404400FB09F04FF47A71B0FBF1F105
:101FC0004FF461606843C6EB061200EB82003844B0
:101FD00000FB091001900198002873D000BF00BFDA
:101FE00000BFFEF7C5F8009000BFFEF7D9FA00BFAA
:101FF00038480078401C37490870084600780128A6
:1020000001D101F0FBF800BFFEF7E4FA00BF009831
:10201000FEF7B2F800BF00BF00BF01202F490968DA
:1020200081F8360023465A462C480199006802F090
:10203000D3F92088F0B100BF00BF00BFFEF798F8C9
:10204000009000BFFEF7ACFA00BF22480078401EA7
:10205000204908700846007808B901F0DDF800BF93
:10206000FEF7B8FA00BF0098FEF786F800BF00BF81
:1020700000BF30E71948006801F064F800BF00BFF6
:1020800000BFFEF775F8009000BFFEF789FA00BFA9
:1020900010480078401E0F4908700846007808B9BB
:1020A00001F0BAF800BFFEF795FA00BF0098FEF7FE
:1020B00063F800BF00BF00BFFEF700FE00202080D5
:1020C00003E0FFE747F27E20208000BF03E7000027
:1020D0005800002090000020A8500008DC000020DC
:1020E00010B586B000F01EF8FEF7E8FA044605A821
:1020F00000210091CDE9011403900748007800EB1E
:102100004000064A02EB800100231A46044800F012
:102110001BFA06B010BD00007E00002060A0002069
:102120005449434B10B50348006810B1014800689A
:10213000804710BD5000002010B5002400BF00BF34
:10214000FEF716F8044600BFFEF72AFA00BF09485A
:102150000078401C0749087000BFFEF73BFA00BF3B
:102160002046FEF709F800BF00BFFFF7B9FFFEF7F2
:1021700033FD10BD5800002001464A1E4FF0E023F9
:102180005A61084A106820F07F4000BF10601A466C
:10219000126942F005021A611A46126942F00202FF
:1021A0001A61704720ED00E00021024A1180018091
:1021B00070470000780000202DE9F04F85B00446FC
:1021C000894692469B46DDF838800020009000BF8B
:1021D00000BFFDF7CDFF009000BFFEF7E1F900BFA3
:1021E000BAF1000F0AD0BAF1010F0DD0BAF5004FC5
:1021F00005D06FF40040504460B906E000BF60694C
:1022000040EA0900606116E000BF606920EA090049
:10221000606110E000BFFEF7DDF900BF0098FDF738
:10222000ABFF00BF00BF45F62560A8F80000002006
:1022300005B0BDE8F08F00BFC4F818B004F1080085
:1022400001900198008968B900BFFEF7C3F900BF8B
:102250000098FDF791FF00BF00BF0020A8F8000024
:102260006069E5E700BF71480078401C6F4908705D
:1022700008460078012801D100F0C0FF00BFFEF73A
:10228000A9F900BF0098FDF777FF00BF00BF00BFAE
:1022900001980768BD6889E07868029095F8880021
:1022A00000F00F0003900398012821D002282ED0BF
:1022B000042802D0082836D10EE06069D5F88010D5
:1022C00000EA0106D5F88000B04204D15A463146F2
:1022D000284600F0AFF863E06069D5F8801000EAA6
:1022E000010626B15A463146284600F0A3F857E0C9
:1022F000D5F88000616920EA0106D5F88000B04277
:1023000004D15A463146284600F094F848E0D5F802
:102310008000616920EA010626B15A463146284606
:1023200000F088F83CE000BF00BF00BFFDF720FFD1
:10233000009000BFFEF734F900BF3C480078401E13
:102340003A49087008460078D0B900F065FF38486F
:10235000008800280BDD00BFFEF73CF900BF0098A5
:10236000FDF70AFF00BF00BF00F01AFF11E000BF39
:10237000FEF730F900BF0098FDF7FEFE00BF08E051
:1023800000BFFEF727F900BF0098FDF7F5FE00BF7C
:1023900000BF00BF43F6FF20A8F80000002047E779
:1023A00000BF029F0FB1BD6800E00025002D7FF443
:1023B00073AF00BF00BF00BFFDF7DAFE009000BFA3
:1023C000FEF7EEF800BF19480078401E1749087064
:1023D0000846007808B900F01FFF00BFFEF7FAF8C2
:1023E00000BF0098FDF7C8FE00BF00BF00BF0AF4A1
:1023F000004008B9FEF762FC00BF00BFFDF7B8FE61
:10240000009000BFFEF7CCF800BF6069049000BFE9
:10241000FEF7E0F800BF0098FDF7AEFE00BF00BF7A
:102420000020A8F80000049802E7000090000020B7
:102430006C00002070B504460E46154634342665FF
:10244000002060702070E560A078343C082816D227
:10245000DFE800F0040508090706101100BF00BFFF
:1024600000BF0DE000BF204601F02EFB002084F8E5
:10247000360005E000BF042084F8360000E000BF0D
:1024800000BF204600F01FFC70BD0000002400BF0C
:102490001DE000BF00BFFDF76BFE044600BFFEF766
:1024A0007FF800BF0A480068401C094908600948D5
:1024B0000068401C0749086000BFFEF78BF800BFAA
:1024C0002046FDF759FE00BF00BFFEF79BFAE0E78C
:1024D00054000020A400002010B58AB0044600205B
:1024E0000E4908600B2000210591CDE907040691F3
:1024F00008460B4909680B4A12680B4B1B68CDE96B
:102500000132CDE903101F200023084A08A10090E2
:102510000C48FEF76DFF0AB010BD0000540000200B
:10252000505000084C500008485000088D24000806
:1025300075432F4F532D4949492049646C652054F8
:1025400061736B00DC9E00202DE9F84F04460D46B8
:1025500016461F46DDE90BABDDF82890DDF8348028
:102560000020009000BF00BFFDF702FE009000BFFA
:10257000FEF716F800BF2C4800882C4909888842CD
:102580003EDA29480088401C2749088028480088EE
:102590000988884203DA24480088254908802548AC
:1025A0000068046023480068856022480068C660AF
:1025B0002048006807821F480068C0F814901D4832
:1025C0000068A0F818A01B480068C0F81CB01948A3
:1025D00000684068174908600120174908811748BA
:1025E00008604860002000F035FC1548007818B1FC
:1025F00013480078134908700020A8F8000008E08C
:1026000011480088401C1049088044F25360A8F823
:10261000000000BFFDF7DEFF00BF0098FDF7ACFD36
:1026200000BF00BFBDE8F88F6C0000205C500008C0
:102630006E0000206400002060A00020989F002011
:102640007E00002080000020700000203EB5594828
:1026500000680068584A811A904279D00FDC5749C7
:10266000084400283ED056490844A8B155490844BA
:10267000002860D05449084400286AD13FE05348FC
:102680000844002850D052490844002862D05149DB
:1026900008440028F1D110E002A8464D00902D68B2
:1026A000EB69444D2D682A8B424D2D686969414D77
:1026B0002D68A868FFF780FD7AE002A93D48006810
:1026C000C0693C4DCDE900012D682B8B394D2D683B
:1026D0002A8A384D2D68E968364D2D68A86800F0C3
:1026E000E5FB65E0334B1B68DA69324B1B68198BDD
:1026F000304B1B68986802AB00F02AFE58E002A934
:102700002C480068C0692B4DCDE900012D682B8B4A
:10271000284D2D682A8A274D2D68E968254D2D689A
:10272000A86801F09BF843E022490968886802A97B
:1027300001F0D8F93CE01F4B1B68DA691D4B1B68A0
:10274000198B1C4B1B68986802AB01F095FA2FE0BF
:1027500007E02CE017490968886802A901F060FDCC
:1027600026E01D49097801EB41011C4A02EB81007A
:1027700000F070FD0F48006802AB0021C2691848E4
:1027800001F07AFA17480068401E164908600846AA
:10279000006858B9144800680860FDF78FFF0446C8
:1027A00002AB22460021114801F066FA00E000BFAA
:1027B00000BF3EBD680000205449434BADBAB2BED5
:1027C0000DF90BFAF2F8F7FF0006F6FF00F7FDF738
:1027D00000FFEFFF03FE0FFE8000002060A000203E
:1027E0009CA20020D8000020D400002058A3002084
:1027F000002700BF56E0002652E000BF00BFFDF7F3
:10280000B7FC074600BFFDF7CBFE00BF2648008897
:1028100098B90020254908810860486000F02CFB29
:1028200000BFFDF7D7FE00BF3846FDF7A5FC00BF8F
:1028300000BFFEF743FA012632E000BFFDF7CAFEF3
:1028400000BF3846FDF798FC00BF00BFFDF736FF1C
:102850000546FFF7FBFEFDF731FF441B14480068F7
:10286000A04201D21248046000BF00BFFDF780FC07
:10287000074600BFFDF794FE00BF0E4800684068A1
:102880000C49086008480088401E0749088000BFBE
:10289000FDF7A0FE00BF3846FDF76EFC00BF00BF8D
:1028A000002EAAD0A7E700006C00002060A0002046
:1028B0007400002068000020F0B589B005460020B3
:1028C000314908803148006820B944F252602880BC
:1028D00009B0F0BD2E480088022803DA44F25460A3
:1028E0002880F5E700202B49086028480468264620
:1028F000203600270CE0284820600020A060E0601F
:10290000208260612083666020342036781C87B284
:102910001F4800888742EEDB203C1C480668666042
:102920001E4806601E48066000201E4908801E4999
:1029300008801E48006818B944F255602880C7E72F
:102940001B4800681B490968884203D244F256605C
:102950002880BDE7032000210591CDE907050691F8
:1029600013480068144A1268104B1B68CDE9030134
:10297000CDE9013200910B46104A11A11748FEF72C
:1029800037FD00BFA4E70000700000205850000889
:102990005C500008740000204E4F4E45640000203B
:1029A000680000206C0000206E00002064500008C9
:1029B0006C500008A450000868500008F127000877
:1029C00075432F4F532D4949492049535220517582
:1029D000657565205461736B00000000989F0020AE
:1029E0000021024A11800180704700007A00002017
:1029F00070B501461A4D2D681DB945F21E750D8042
:102A000070BD184D2D881DB945F21D750D80F7E775
:102A1000134D28682A681032124D2D886D1EACB2F5
:102A2000002308E00260002545600581C560103084
:102A300010325D1CABB2A342F4DB0025056045609B
:102A40000581C560064D2D68074E3560054D2D8802
:102A5000B5800025F58035810D8000BFD0E70000EE
:102A6000885000088050000854A0002010B501468E
:102A700048894B89002B17DD0A680C4B1B681360D3
:102A80000A4C4B6823602346DB884C891B1B074C90
:102A9000E38023469B884C892344044CA380002375
:102AA0004B818B810B604B6010BD000054A0002057
:102AB00001810022428182810260426070470000F1
:102AC0002DE9F0410D46DDE90674B0F80AC0B0F812
:102AD0000880C44505DB46F2935CA4F800C0BDE85D
:102AE000F081DFF8DCC0BCF804C0BCF1000F04D1F9
:102AF00045F21D7CA4F800C0F1E7DFF8C4C0DCF8A3
:102B00000010DFF8BC80D1F800C0C8F800C0C4468F
:102B1000BCF804C0ACF1010CA8F804C0C446BCF871
:102B200006C00CF1010CA8F806C0C446BCF808C0E9
:102B3000B8F80680C44507DADFF884C0BCF806C0E0
:102B4000DFF87C80A8F808C0B0F80AC0BCF1000F1C
:102B50000AD1016041604FF0010CA0F80AC04FF0AB
:102B6000000CC1F800C017E003F0100CBCF1000F1E
:102B700007D10668316001604FF0000CC1F800C059
:102B800004E0D0F804C0C1F800C04160B0F80AC049
:102B90000CF1010CA0F80AC0B0F80CC0B0F80A8023
:102BA000C44503DAB0F80AC0A0F80CC04D600A8131
:102BB000CF604FF0000CA4F800C000BF8FE700000A
:102BC00054A000200021024A1180018070470000BB
:102BD0007C0000202DE9F04105460C4616461F46B4
:102BE0001248006880F8346000201049096881F8B4
:102BF000350039460D48006800F0AAFD6CB104F1BB
:102C00000808EC60012229460848006800F010F826
:102C10002946404600F024F806E0002003490968F0
:102C2000C887024909680863BDE8F081DC0000201C
:102C300010B5C287016300230AE000244C600C60D9
:102C40000C614C610C83CC61886020315C1CA3B2A8
:102C50009342F2DB10BD00210160416001817047A9
:102C6000F0B58E6896F8375007893FB9012707817C
:102C700000274F600F600160416023E007897F1CDF
:102C80000781026806E0946894F83770AF4200DD6F
:102C900002E05268002AF6D100BF32B900274F6027
:102CA00043680B60596041600CE017682FB91160F0
:102CB00000270F604A60016004E013680B604A60FF
:102CC00059601160F0BD2DE9F0410446256BE68F97
:102CD0000AE0D5F80C8008F108072946384600F0CC
:102CE0000AF82035701E86B2002EF2DC0020E08744
:102CF0002063BDE8F08110B50489012C03D10024C4
:102D00000460446011E00C6824B94A68002414602F
:102D100002600AE04C6824B90B6800245C604360E0
:102D200003E00B684A685A6013600489641E0481DA
:102D300000244C600C6010BD2DE9F84306460C469B
:102D400017469846089D94F83600082848D2DFE8D0
:102D500000F0040508090607272800BF00BF00BFD0
:102D60003FE000BF94F83400032807D143463A46B9
:102D700021463046009500F037F803E0E765A4F8F7
:102D80006080256416B12046FFF79DFF204600F0C5
:102D90009BFE00203434A070607004F8340920E0F9
:102DA00000BF94F83400032807D143463A46214631
:102DB0003046009500F018F803E0E765A4F860805D
:102DC0002564204601F0E6FB16B12046FFF77BFFA5
:102DD00004203434A0700020607004F8340900E04E
:102DE00000BF00BFBDE8F883F0B50446059E086B40
:102DF000CD8F0AE0C768A74204D104614261038312
:102E0000C66104E020306F1EBDB2002DF2DC00BFB1
:102E1000F0BD000070B50025074C03E005F120006F
:102E2000C5B2241D20680028F8D02068FDF7ABF952
:102E30002844C5B2284670BD34000020002004E0BC
:102E40000021034A42F82010401C0028F8D07047A7
:102E50003400002030B5420900F01F030121C3F106
:102E60001F04A140034C54F822400C43014D45F887
:102E7000224030BD3400002030B5420900F01F036D
:102E80000121C3F11F04A140034C54F822408C439C
:102E9000014D45F8224030BD340000200021024A97
:102EA0001180018070470000820000202DE9F04F62
:102EB00085B007468A4693461C460020029000BF14
:102EC00000BF00BFFDF754F9029000BFFDF768FB9B
:102ED00000BF56480078401C5449087008460078E6
:102EE000012801D100F08AF900BFFDF773FB00BF94
:102EF0000298FDF741F900BF00BF00BF07F10806C7
:102F0000308900284CD104F0100010B94FF00008AF
:102F100001E04FF01008DDE90E0143465A46CDE9C5
:102F20000001514607F11400FFF7CAFD00BF00BFC2
:102F300000BFFDF71DF9029000BFFDF731FB00BF98
:102F40003A480078401E3949087008460078D0B9E0
:102F500000F062F93648008800280BDD00BFFDF75D
:102F600039FB00BF0298FDF707F900BF00BF00F072
:102F700017F911E000BFFDF72DFB00BF0298FDF728
:102F8000FBF800BF08E000BFFDF724FB00BF02987C
:102F9000FDF7F2F800BF00BF00BF05B0BDE8F08F3D
:102FA00004F4007008B1358900E00125D6F80090DE
:102FB00011E0D9F808000390D9F8040004900E98A5
:102FC0005B465246009038460399FFF7B5FEDDF8A0
:102FD0001090681E85B2002DEBD100BF00BF00BF6E
:102FE000FDF7C6F8029000BFFDF7DAFA00BF0F4800
:102FF0000078401E0D4908700846007808B900F0B6
:103000000BF900BFFDF7E6FA00BF0298FDF7B4F830
:1030100000BF00BF00BF04F4004008B9FDF74EFE3A
:1030200000210F98018000BFB7E70000900000204A
:103030006C00002000210AE001EB4102054B03EB8C
:10304000820000220281026042604A1CD1B2202923
:10305000F2D3704760A0002010B5044694F8370002
:10306000FFF7F8FE94F8370005490978884203D144
:10307000204600F027F802E0204600F003F810BDDB
:103080007E00002010B590F8373003EB43030C4C62
:1030900004EB83010B893BB901230B810023C3603F
:1030A00003610860486009E00B895B1C0B810B68B9
:1030B000C360002303610A681061086010BD00004E
:1030C00060A0002010B590F8373003EB43030B4CA1
:1030D00004EB83010B893BB901230B810023C360FF
:1030E00003610860486008E00B895B1C0B810023CA
:1030F000C3604A680261D060486010BD60A00020D3
:1031000010B501460C8924B1012C03D0022C0CD13E
:1031100001E000BF14E008684A6802610024C4604E
:103120001461D0600A6048600AE008684A68C368B1
:1031300000241C61C4600261D0600B60486000BF65
:1031400000BF10BD2DE9F041054695F8370000EBB2
:103150004000124901EB80042F69EE6887B946B937
:10316000002020812060606095F83700FFF784FE22
:103170000EE02089401E208100203061266007E09B
:103180002089401E2081FE600EB9676000E0376133
:1031900000202861E860BDE8F081000060A0002008
:1031A00010B5002400BFFCF7E3FF044600BF002079
:1031B0000D4908700D480E49086008460068D0F8AF
:1031C0009000401C0968C1F890000A480068401C43
:1031D000084908604FF080500749086000BF20464A
:1031E000FCF7CAFF00BF10BD7F000020989F0020A1
:1031F000E0000020B800002004ED00E010B5044815
:103200000078012803D1FDF759FA0249086010BD82
:10321000900000208400002010B50A48007880B992
:10322000FDF74CFA08490968441A08480068A042AA
:1032300001D20648046006480068A04201D2044852
:10324000046010BD90000020840000208800002051
:103250008C00002070B5054600263548007801280E
:1032600000D070BD00BF00BFFCF782FF064600BF64
:10327000FDF796F900BF2C684CB900BFFDF7AAF91D
:1032800000BF3046FCF778FF00BF00BFE9E72948E0
:10329000844209D100BFFDF79DF900BF3046FCF71D
:1032A0006BFF00BF00BFDCE7A06D10B1A06D401E3A
:1032B000A065A06D48B100BFFDF78CF900BF304696
:1032C000FCF75AFF00BF00BFCBE72889022809DAC4
:1032D00000BFFDF77FF900BF3046FCF74DFF00BF90
:1032E00000BFBEE714480078002809DD00BFFDF7E5
:1032F00071F900BF3046FCF73FFF00BF00BFB0E7E9
:103300002846FFF7FDFE2C68606D18B90B48006871
:10331000A06501E0606DA06500BFFDF75BF900BF2F
:103320003046FCF729FF00BF00BF00BF99E700004F
:1033300098000020DC9E00209000002094000020D7
:103340000021024A11800180704700009A0000208D
:103350002DE9FF5F0446884691461D4600200190F6
:1033600000BF00BFFCF704FF019000BFFDF718F994
:1033700000BF04F108073889002857D1042001282C
:1033800004D0022816D004283AD127E06069FF282B
:103390000FD100BFFDF71EF900BF0198FCF7ECFE4E
:1033A00000BF00BF46F6C5502880002004B0BDE82D
:1033B000F09F26E04FF6FF71606988420DD100BF93
:1033C000FDF708F900BF0198FCF7D6FE00BF00BF6B
:1033D00046F6C55028800020E8E712E06069401CEE
:1033E00068B900BFFDF7F6F800BF0198FCF7C4FE0E
:1033F00000BF00BF46F6C55028800020D6E700E099
:1034000000BF00BF6069401C6061D4F814A0C4F81C
:10341000189000BFFDF7DEF800BF0198FCF7ACFE86
:1034200000BF00BF002028805046BFE700BF2D48E6
:103430000078401C2B49087008460078012801D10B
:10344000FFF7DCFE00BFFDF7C5F800BF0198FCF7F1
:1034500093FE00BF00BF00BF08F4007008B13E89B2
:1034600000E00126D7F800B011E0DBF80800029078
:10347000DBF80400039000231A46CDF800902046A4
:103480000299FFF759FCDDF80CB0701E86B2002ED1
:10349000EBD1D4F814A000BF00BF00BFFCF768FE5A
:1034A000019000BFFDF77CF800BF0E480078401E79
:1034B0000C4908700846007808B9FFF7ADFE00BF58
:1034C000FDF788F800BF0198FCF756FE00BF00BF6B
:1034D00000BF08F4004008B9FDF7F0FB0020288089
:1034E000504663E79000002008B54FF0000A00BF87
:1034F00006E05549096848006A460021FEF732FC9B
:10350000524800780128F4D16846FDF7A5FE002452
:103510004F4800684C490968884205D94C48006802
:1035200049490968B0FBF1F424B9494800680A2107
:10353000B0FBF1F487E0FDF7C1F80746FDF71AF894
:103540004449086000BF00BFFCF712FE824600BF7E
:10355000FDF726F800BF4048006840490860002099
:103560003D49086000BFFDF735F800BF5046FCF745
:1035700003FE00BF00BF3A48006838490968884226
:1035800043D9374800683749884204D242F210785C
:103590004FF0010920E0324800683349884204D2E4
:1035A0004FF47A784FF00A0916E02D4800682F4949
:1035B000884203D24FF06408C1460DE028480068F5
:1035C0002B49884204D24FF00A084FF47A7903E07D
:1035D0004FF0010842F2107921480068B0FBF9F67B
:1035E0001E48006808FB00F0B0FBF6F042F21071D4
:1035F000081A20490880204800880988884208DA8B
:103600001C4800881C49088003E042F210701949E8
:103610000880FDF7E3FE19480078012805D1002055
:10362000164908706846FDF717FEFDF747F8C51BF9
:1036300013480068A84201D2114805606A4600217B
:103640002046FEF78FFB76E790500008B000002080
:10365000A85000085C000020A4000020AC0000205E
:10366000A8000020801A060000093D00005A6202EE
:103670000084D7179E000020A00000209C0000209E
:10368000B400002010B58AB0044600201F4908602D
:103690001F4908601F4908601F4908701F490870CA
:1036A0001F48006820B946F62B6020800AB010BD84
:1036B0001C4800681C490968884203D246F62C6001
:1036C0002080F3E7194800781F2803D346F62A60C4
:1036D0002080EBE7032000210591CDE90704069146
:1036E000084610490968124A12680D4B1B68CDE95B
:1036F0000132CDE903100D48007800230D4A0EA1D8
:1037000000901248FDF774FE00BFCFE7A400002030
:10371000AC000020A8000020B00000209C00002089
:10372000945000089C500008A45000088C500008D9
:1037300098500008E934000875432F4F532D49492C
:10374000492053746174205461736B00E0A1002020
:1037500038B504460D4685B16B46022229462046FF
:1037600000F03AFEBDF8000018B9032084F83600D6
:1037700006E0022084F8360002E0022084F83600D9
:103780002046FFF7DFFC38BD0021034A1180034AC1
:103790001160018070470000BC000020B8000020CC
:1037A00070B5044600202060A0606060E060206189
:1037B0006061A061E06127A0206200206062A062D9
:1037C000E0622063E0872064E065A4F860000021E7
:1037D00004F16400FFF76CF9002044F8740F606096
:1037E000E060A0822061743C002506E0002104F125
:1037F0007C0040F82510681CC5B2002DF6D00020D2
:103800003434206120676067606084F85600E067A8
:10381000A06720814FF0004060610020A061E0615E
:1038200020626062A4F85800A4F85A00E06520669F
:10383000FCF744FF064666660020A066C4F88000D8
:10384000C4F8840020706070A0702020E070343CC8
:1038500070BD00003F5461736B0000002DE9FC4710
:1038600004460F4690469946DDE90A654FF0000A86
:1038700000BF00BF00BFFCF77BFC824600BFFCF727
:103880008FFE00BF8D480078401C8C4908700846A8
:103890000078012801D1FFF7B1FC00BFFCF79AFEC8
:1038A00000BF5046FCF768FC00BF00BF00BF0CB96A
:1038B000834804680020288094F8360008287CD2C9
:1038C000DFE800F00405484906074A4B00BF00BF87
:1038D00000BF4B464246394604F16400CDE900651D
:1038E000FFF7EEF800BF00BF00BFFCF741FC8246C7
:1038F00000BFFCF755FE00BF70480078401E6F49BE
:10390000087008460078D0B9FFF786FC6D4800883B
:1039100000280BDD00BFFCF75DFE00BF5046FCF742
:103920002BFC00BF00BFFFF73BFC11E000BFFCF722
:1039300051FE00BF5046FCF71FFC00BF08E000BF6F
:10394000FCF748FE00BF5046FCF716FC00BF00BF66
:1039500000BFAFE000BF00BF00BF94F834000228F2
:103960002CD143463A46214600200096FFF7E4F961
:1039700000BF00BF00BFFCF7FBFB824600BFFCF7A7
:103980000FFE00BF4D480078401E4C4908700846A5
:10399000007808B9FFF740FC00BFFCF71BFE00BF32
:1039A0005046FCF7E9FB00BF00BF00BF09F4004030
:1039B000002843D1FDF782F940E040E04B46424603
:1039C000394604F16400CDE90065FFF779F800BFDE
:1039D00000BF00BFFCF7CCFB824600BFFCF7E0FD58
:1039E00000BF36480078401E344908700846007809
:1039F000D0B9FFF711FC3348008800280BDD00BF69
:103A0000FCF7E8FD00BF5046FCF7B6FB00BF00BF67
:103A1000FFF7C6FB11E000BFFCF7DCFD00BF50461E
:103A2000FCF7AAFB00BF08E000BFFCF7D3FD00BF16
:103A30005046FCF7A1FB00BF00BF00BF3AE000BF4B
:103A400000BF00BFFCF794FB824600BFFCF7A8FD57
:103A500000BF1A480078401E1849087008460078D0
:103A6000D0B9FFF7D9FB1748008800280BDD00BF4D
:103A7000FCF7B0FD00BF5046FCF77EFB00BF00BF67
:103A8000FFF78EFB11E000BFFCF7A4FD00BF50461E
:103A9000FCF772FB00BF08E000BFFCF79BFD00BF16
:103AA0005046FCF769FB00BF00BF00BF46F62D6023
:103AB000288000BF00BFBDE8FC8700009000002008
:103AC000DC0000206C00002010B50446204600F009
:103AD00061FD94F8360000F0040010B92046FFF7AD
:103AE000BBFA10BD70B504460D46002600BF00BFEE
:103AF000FCF73EFB064600BFFCF752FD00BF00206E
:103B0000288094F8360008287ED2DFE800F004050B
:103B1000060714566A8000BF00BF00BF00BFFCF755
:103B200059FD00BF3046FCF727FB00BF00BF47F23E
:103B3000531028808CE000BF48480078401C47495B
:103B4000087008460078012801D1FFF757FB00BF35
:103B5000FCF740FD00BF3046FCF70EFB00BF00BF86
:103B600000BF14F88A0F401E207014F88A0928B983
:103B7000002084F836002046FFF7A6FF00BF00BFF4
:103B800000BFFCF7F5FA064600BFFCF709FD00BFD1
:103B900032480078401E314908700846007808B95C
:103BA000FFF73AFB00BFFCF715FD00BF3046FCF7FE
:103BB000E3FA00BF00BF00BF4AE014F88A0F401EBE
:103BC000207014F88A0910B9012084F8360000BF6B
:103BD000FCF700FD00BF3046FCF7CEFA00BF00BF87
:103BE00036E014F88A0F401E207014F88A0910B9C4
:103BF000022084F8360000BFFCF7ECFC00BF304622
:103C0000FCF7BAFA00BF00E015E000BF20E014F8AE
:103C10008A0F401E207014F88A0910B9032084F816
:103C2000360000BFFCF7D6FC00BF3046FCF7A4FA14
:103C300000BF00BF0CE000BFFCF7CCFC00BF30466B
:103C4000FCF79AFA00BF00BF46F62D60288070BDD1
:103C500000BFFDF733F800BFF9E700009000002037
:103C600008B504480068FDF767FE69460020FDF7C7
:103C700013FD08BDDC0000202DE9F843044688460A
:103C800017461D464FF0000900BF00BF00BFFCF7FC
:103C90006FFA814600BFFCF783FC00BFFB48007849
:103CA000401CFA49087008460078012801D1FFF746
:103CB000A5FA00BFFCF78EFC00BF4846FCF75CFA93
:103CC00000BF00BF00BF0CB9F148046827640020A2
:103CD000288094F8360008287AD2DFE800F004053E
:103CE000FEFD0607FCFB00BF00BF00BF042001284B
:103CF00004D0022843D004286BD184E0606CFF28F4
:103D00003CD100BF00BF00BFFCF732FA814600BFC4
:103D1000FCF746FC00BFDD480078401EDB49087018
:103D200008460078D0B9FFF777FADA48008800280B
:103D30000BDD00BFFCF74EFC00BF4846FCF71CFA49
:103D400000BF00BFFFF72CFA11E000BFFCF742FCF8
:103D500000BF4846FCF710FA00BF08E000BFFCF7C0
:103D600039FC00BF4846FCF707FA00BF00BF00BFA0
:103D700046F6C55028800020BDE8F88385E04FF660
:103D8000FF71606C88423DD100BF00BF00BFFCF7EF
:103D9000EFF9814600BFFCF703FC00BFBB48007889
:103DA000401EBA49087008460078E0B9FFF734FAB7
:103DB000B848008800280DDD00BFFCF70BFC00BFF1
:103DC0004846FCF7D9F900BF00BFFFF7E9F913E057
:103DD000E2E159E000BFFCF7FDFB00BF4846FCF7FD
:103DE000CBF900BF08E000BFFCF7F4FB00BF48467A
:103DF000FCF7C2F900BF00BF00BF46F6C5502880DF
:103E00000020B9E741E0606C401CD8BB00BF00BF98
:103E100000BFFCF7ADF9814600BFFCF7C1FB00BF56
:103E20009A480078401E9949087008460078D0B931
:103E3000FFF7F2F99748008800280BDD00BFFCF778
:103E4000C9FB00BF4846FCF797F900BF00BFFFF76A
:103E5000A7F911E000BFFCF7BDFB00BF4846FCF727
:103E60008BF900BF08E000BFFCF7B4FB00BF484679
:103E7000FCF782F900BF00BF00BF46F6C55028809E
:103E8000002079E7FFE700E000BF00BF606C401C46
:103E90006064666C00BF00BF00BFFCF769F9814633
:103EA00000BFFCF77DFB00BF78480078401E7749D3
:103EB000087008460078F8B9FFF7AEF97548008831
:103EC000002810DD00BFFCF785FB00BF4846FCF76B
:103ED00053F903E01EE01CE01AE018E000BF00BF49
:103EE000FFF75EF911E000BFFCF774FB00BF484626
:103EF000FCF742F900BF08E000BFFCF76BFB00BF16
:103F00004846FCF739F900BF00BF00BF80E100BFA1
:103F100000BF00BF94F8340007282CD100231A46B4
:103F2000214618460097FEF707FF666C00BF00BFEA
:103F300000BFFCF71DF9814600BFFCF731FB00BF55
:103F400052480078401E514908700846007808B968
:103F5000FFF762F900BFFCF73DFB00BF4846FCF7E6
:103F60000BF900BF00BF00BF08F40040002801D1DA
:103F7000FCF7A4FE0FE10420012804D0022842D05F
:103F8000042872D189E0606CFF283BD100BF00BFDC
:103F900000BFFCF7EDF8814600BFFCF701FB00BF56
:103FA0003A480078401E3949087008460078D0B970
:103FB000FFF732F93748008800280BDD00BFFCF717
:103FC00009FB00BF4846FCF7D7F800BF00BFFFF76A
:103FD000E7F811E000BFFCF7FDFA00BF4846FCF728
:103FE000CBF800BF08E000BFFCF7F4FA00BF48467A
:103FF000FCF7C2F800BF00BF00BF46F6C5502880DE
:104000000020B9E68BE04FF6FF71606C884243D127
:1040100000BF00BF00BFFCF7ABF8814600BFFCF754
:10402000BFFA00BF19480078401E184908700846BA
:104030000078D8B9FFF7F0F81648008800280BDDA3
:1040400000BFFCF7C7FA00BF4846FCF795F800BF71
:1040500000BFFFF7A5F812E000BFFCF7BBFA00BFF6
:104060004846FCF789F800BF09E057E000BFFCF7BD
:10407000B1FA00BF4846FCF77FF800BF00BF00BFA1
:1040800046F6C5502880002076E60000900000200B
:10409000DC0000206C00002041E0606C401CD8BBBC
:1040A00000BF00BF00BFFCF763F8814600BFFCF70C
:1040B00077FA00BF58480078401E574908700846F4
:1040C0000078D0B9FFF7A8F85448008800280BDD25
:1040D00000BFFCF77FFA00BF4846FCF74DF800BF71
:1040E00000BFFFF75DF811E000BFFCF773FA00BFF7
:1040F0004846FCF741F800BF08E000BFFCF76AFA49
:1041000000BF4846FCF738F800BF00BF00BF46F6C6
:10411000C550288000202FE6FFE700E000BF00BF69
:10412000606C401C6064666C00BF00BF00BFFCF7A1
:104130001FF8814600BFFCF733FA00BF364800780D
:10414000401E3549087008460078D0B9FFF764F87A
:104150003248008800280BDD00BFFCF73BFA00BFA7
:104160004846FCF709F800BF00BFFFF719F811E057
:1041700000BFFCF72FFA00BF4846FBF7FDFF00BF6A
:1041800008E000BFFCF726FA00BF4846FBF7F4FF43
:1041900000BF00BF00BF3BE000BF00BF00BFFBF798
:1041A000E7FF814600BFFCF7FBF900BF1A48007823
:1041B000401E1949087008460078D0B9FFF72CF85E
:1041C0001648008800280BDD00BFFCF703FA00BF8B
:1041D0004846FBF7D1FF00BF00BFFEF7E1FF11E04B
:1041E00000BFFCF7F7F900BF4846FBF7C5FF00BF6B
:1041F00008E000BFFCF7EEF900BF4846FBF7BCFF44
:1042000000BF00BF00BF46F62D602880002600BF1B
:1042100000BF3046B0E50000900000206C00002098
:1042200070B504460D46002600BF00BFFBF7A0FF97
:10423000064600BFFCF7B4F900BF0CB95A48046841
:1042400059480068844210D15848007800280CDD95
:1042500000BFFCF7BFF900BF3046FBF78DFF00BF82
:1042600000BF46F66350288070BD0020288094F877
:104270003600082873D2DFE800F0044252627374FB
:10428000757600BF49480078401C484908700846C8
:104290000078012801D1FEF7B1FF00BFFCF79AF9C1
:1042A00000BF3046FBF768FF00BF00BF00BF04201F
:1042B00084F83600012084F88A002046FEF742FF89
:1042C00000BF00BF00BFFBF753FF064600BFFCF76F
:1042D00067F900BF35480078401E34490870084629
:1042E000007808B9FEF798FF00BFFCF773F900BF2C
:1042F0003046FBF741FF00BF00BF00BF4FE0052085
:1043000084F83600012084F88A0000BFFCF762F9C7
:1043100000BF3046FBF730FF00BF00BF3FE0062084
:1043200084F83600012084F88A0000BFFCF752F9B7
:1043300000BF3046FBF720FF00BF00BF2FE0072083
:1043400084F83600012084F88A0000BFFCF742F9A7
:1043500000BF3046FBF710FF00BF00BF1FE011E0B9
:1043600000BF00BF00BF94F88A00401C84F88A0098
:1043700000BFFCF72FF900BF3046FBF7FDFE00BF82
:1043800000BF0CE000BFFCF725F900BF3046FBF78B
:10439000F3FE00BF00BF46F62D60288064E700BF33
:1043A000FCF78CFC00BF5FE7DC00002090000020E1
:1043B000002108E0064A02EBC10000220260828070
:1043C000C2804A1C91B2034A12889142F2DB7047C4
:1043D000CC9B0020C05000082DE9F04F0C4616463B
:1043E0001D46042E1ED1DFF8A091D9F80090A4EB51
:1043F0000909A9F1010313F5803F0DD94FF0000918
:10440000C0F84C90C0F85090C0F81C9047F27E293C
:10441000A5F80090BDE8F08FC46403F10109C0F86D
:1044200050903FE084B3082E25D1D0F8489009EB96
:104430000407DFF85491D9F80090A7EB0909A9F116
:104440000103A34201D2C76406E0DFF83C91D9F82A
:104450000090A144C0F84C90DFF82CA1D0F84C900B
:10446000DAF800A0A9EB0A09C0F85090D0F84C90F7
:10447000C0F8489016E0DFF81091D9F80090A144F8
:10448000C0F84C9004650DE0FFE74FF00009C0F85C
:104490004C90C0F85090C0F81C9047F27E29A5F8C7
:1044A0000090B7E7DFF8E4A0BAF800A0D0F84C908D
:1044B000B9FBFAFB0AFB1B991FFA89F8DFF8D090C9
:1044C00009EBC802B2F80490B9F1000F0BD14FF01C
:1044D0000009C0F81490C0F8189010604FF001095E
:1044E000A2F804903EE0116834E0DFF89CA0D1F817
:1044F0004C90DAF800A0A9EB0A09C1F85090D0F866
:104500005090D1F850A0D1450ED9D1F81490B9F1FE
:10451000000F01D049691DE04FF00009C0F8149068
:1045200081614861002115E0D1F81890B9F1000FC0
:1045300007D14FF00009C0F8189041618861106000
:1045400007E0D1F818C0C0F818C04161CCF81400D9
:10455000886100210029C8D1B2F8049009F101094D
:10456000A2F80490B2F80690B2F804A0D14503DA9C
:10457000B2F80490A2F80690C2614FF00009A5F8C5
:10458000009000BF46E70000C0000020C0500008B7
:10459000CC9B002010B5C269BAB100240465146830
:1045A000844205D14169116039B100248C6104E075
:1045B000816943694B6103B199610024446184615D
:1045C000C461C4649488641E948010BD002006E019
:1045D000054A02EBC0010022CA80421C90B2034A85
:1045E00012889042F4DB7047CC9B0020C05000083A
:1045F0002DE9F05F4FF0000B00BF00BF00BFFBF7DD
:10460000B7FD834600BFFBF7CBFF00BF7A480078B9
:10461000401C7949087008460078012801D1FEF74E
:10462000EDFD00BFFBF7D6FF00BF5846FBF7A4FD2A
:1046300000BF00BF00BFFCF741F805466F480068A7
:10464000401C6E490860084600686D490988B0FB47
:10465000F1F201FB12001FFA80FA6A4800EBCA0867
:10466000D8F80040002782E0002C7FD0D4F81490C6
:1046700094F83600082875D2DFE800F00408051B1E
:10468000063D075000BF00BF00BF6CE05B49E06C17
:104690000968401A20655949E06C0968884206D1CA
:1046A000002084F836002046FFF70EFA00E00127CC
:1046B00059E05249E06C0968401A20654F49E06CA6
:1046C0000968884215D10020E065A4F86000FBF776
:1046D000F5FF20642046FEF7F6FA2046FFF7F4F9CE
:1046E00000203434A07003206070002004F83409E6
:1046F00000E0012737E04149E06C0968401A206575
:104700003E49E06C0968884206D1042084F83600EE
:104710002046FFF73FFF00E0012724E03749E06C27
:104720000968401A20653549E06C0968884217D14C
:104730000020E065A4F86000FBF7C0FF206420467D
:10474000FEF7C1FA2046FFF725FF04203434A0709D
:1047500003206070002004F8340902E006E001E064
:10476000012700E000BF00BF4C4600E00127002FFA
:104770003FF47AAFFBF7A2FF461B23480068B04224
:1047800001D22148066000BF00BF00BFFBF7F0FC6C
:10479000834600BFFBF704FF00BF17480078401EA8
:1047A0001549087008460078D0B9FEF735FD17485E
:1047B000008800280BDD00BFFBF70CFF00BF584648
:1047C000FBF7DAFC00BF00BFFEF7EAFC11E000BF18
:1047D000FBF700FF00BF5846FBF7CEFC00BF08E028
:1047E00000BFFBF7F7FE00BF5846FBF7C5FC00BF54
:1047F00000BF00BFBDE8F09F90000020C000002077
:10480000C0500008CC9B0020C40000206C00002099
:104810001CB500BF0EE001AB6A4600210846FDF75B
:1048200097F8BDF8040028B903480078012801D1A1
:10483000FFF7DEFEEFE700006000002010B58AB051
:10484000044600201D4908601D490860FFF7B0FDBF
:104850001C48006820B947F2122020800AB010BD21
:104860001948006819490968884203D247F21320A1
:104870002080F3E7164800781F2803D347F2112061
:104880002080EBE70B20002105910A46CDE90704C3
:1048900006910D4800680F4909680A4B1B68CDE96D
:1048A0000131CDE903020A48007800230A4A0BA12E
:1048B00000900F48FCF79CFD00BFCFE7C000002030
:1048C000C4000020B0500008B8500008A4500008F0
:1048D000AC500008B45000081148000875432F4F31
:1048E000532D494949205469636B205461736B000F
:1048F0009CA2002070B58AB004463048006840B1E0
:104900002F4800682D490968B0FBF1F02D49086077
:1049100006E02B4800680A21B0FBF1F02949086045
:10492000284800682849086000202849086028496C
:104930000860002508E0274800EBC5060020B0808D
:10494000F0803060681C85B2234800888542F2DB25
:104950002248006820B947F2473020800AB070BD75
:104960001F4800681F490968884203D247F248304F
:104970002080F3E71C4800781F2803D347F2463015
:104980002080EBE70B2000210591CDE9070406917B
:10499000084613490968154A1268104B1B68CDE98F
:1049A0000132CDE90310104800780023104A11A10C
:1049B00000901648FCF71CFD00BFCFE7CC50000864
:1049C000A8500008D4000020D8000020D00000200B
:1049D000CC000020549E0020E0500008D050000879
:1049E000D8500008A4500008C8500008D45000084F
:1049F000054B000875432F4F532D494949205469F1
:104A00006D6572205461736B0000000058A3002094
:104A1000F0B50C46022680F82A60012C05D12D4FF6
:104A2000466A3F683E4486610CE0066A2EB9294F0B
:104A3000466A3F683E44866104E0264F066A3F6846
:104A40003E448661244F3F888669B6FBF7FC07FB2E
:104A50001C66B5B2214E06EBC502166836B90026B3
:104A6000066146611060012696802CE0194F866928
:104A70003F68F61BC661116820E0164F8E693F68DB
:104A8000F61BCE61C669CF69BE4209D90E690EB167
:104A9000096913E0002606614161086100210DE00B
:104AA0004E692EB90026466101614861106004E03C
:104AB0004B69436101611861486100210029DCD123
:104AC0009688761C9680D6889788BE4201DA9688AA
:104AD000D680F0BDD0000020E0500008549E002099
:104AE000002006E0054A02EBC0010022CA80421CF9
:104AF00090B2034A12889042F4DB7047549E002023
:104B0000E05000081CB500BF53E001AB6A4600212D
:104B10000846FCF71DFF01A8FCF724F9FBF7CEFDC2
:104B2000064624480068401C224908600846006880
:104B300021490988B0FBF1F201FB12001FFA80FA4B
:104B40001E4800EBCA08D8F800404FF0000B21E0E7
:104B5000F4B1D4F810901749A0690968884214D1BB
:104B6000204600F02FF8208D022804D10121204694
:104B7000FFF74EFF02E0032084F82A00A56815B174
:104B80002046E168A8474C4604E04FF0010B01E0E5
:104B90004FF0010BBBF1000FDAD0FBF78FFD871B45
:104BA00001A8FCF71DF906480068B84201D2044884
:104BB0000760AAE7D0000020E0500008549E0020C3
:104BC000CC000020F0B5114E36888569B5FBF6F7AC
:104BD00006FB1755ACB20E4D05EBC40215688542B5
:104BE00005D10169116039B100254D6104E04169C9
:104BF00003690B6103B15961012580F82A50002532
:104C00000561456195886D1E9580F0BDE0500008F6
:104C1000549E002029B1064A92690243044B9A61CE
:104C200004E0034A92698243014B9A617047000095
:104C30000010024030B500210022002400232D4D39
:104C40006D6805F00C0121B1042905D0082923D194
:104C500005E0294D056022E0274D05601FE0254D48
:104C60006D6805F47012234D6D6805F480340225DB
:104C700005EB92421CB9214D554305600BE01D4DDB
:104C80006D6805F400351DB11C4D5543056002E00B
:104C9000194D5543056002E0174D056000BF00BF88
:104CA000144D6D6805F0F0010909154D6B5C056840
:104CB000DD4045600F4D6D6805F4E061090A104D57
:104CC0006B5C4568DD4085600A4D6D6805F4605198
:104CD000C90A0B4D6B5C4568DD40C560054D6D68CC
:104CE00005F44041890B074D6B5CC568B5FBF3F5D6
:104CF000056130BD0010024000127A0000093D003D
:104D00000000002010000020704710B500F002F8ED
:104D100010BD00000CB500200190009033480068E1
:104D200040F480303149086000BF3048006800F42A
:104D3000003000900198401C0190009818B901982B
:104D4000B0F5A06FF1D12948006800F4003010B12F
:104D50000120009001E0002000900098012843D13C
:104D60002348006840F010002149086008460068A8
:104D700020F0030008600846006840F00200086068
:104D80001A48406819494860084640684860084623
:104D9000406840F4806048600846406820F47C1019
:104DA00048600846406840F4E810486008460068DB
:104DB00040F08070086000BF0C48006800F0007090
:104DC0000028F9D00948406820F0030007494860EE
:104DD0000846406840F00200486000BF0348406851
:104DE00000F00C000828F9D10CBD000000100240B2
:104DF0000020024010B51348006840F0010011493E
:104E0000086008464068104908400E494860084656
:104E100000680E4908400B4908600846006820F405
:104E2000802008600846406820F4FE0048604FF487
:104E30001F008860FFF769FF4FF0006004490860B9
:104E400010BD0000001002400000FFF8FFFFF6FE5A
:104E500008ED00E021B1828942F40052828104E031
:104E600082894DF6FF731A40828170472DE9F04721
:104E700086B005460E460024A24600BFA146002784
:104E8000B08900B100BF2F462C8A4CF6FF70044059
:104E9000F08804432C82AC894EF6F3100440B088AD
:104EA00031890843718908430443AC81AC8A4FF6C9
:104EB000FF400440B0890443AC8201A8FFF7BAFE6A
:104EC0001F48874202D1DDF810A001E0DDF80CA0F8
:104ED000A88900F4004040B10AEBCA0000EB0A10B8
:104EE00031684900B0FBF1F807E00AEBCA0000EBBB
:104EF0000A1031688900B0FBF1F86420B8FBF0F0CB
:104F000004012009642101FB1089A88900F40040F4
:104F100040B1322000EBC900B0FBF1F000F0070017
:104F2000044308E0322000EB09106421B0FBF1F0EB
:104F300000F00F0004432C8106B0BDE8F0870000AC
:104F40000038014000B585B001218803FFF762FEFB
:104F500001210420FFF75EFE4FF40070ADF8100051
:104F600018208DF8130003208DF8120004A91348AF
:104F7000FBF7ABFB4FF48060ADF8100004208DF818
:104F8000130004A90D48FBF7A0FB4FF4E13000909B
:104F90000020ADF80400ADF80600ADF80800ADF84B
:104FA0000C000C20ADF80A0069460548FFF75EFFCB
:104FB00001210348FFF74EFF05B000BD0008014086
:104FC0000038014000BFFEE702E008C8121F08C118
:104FD000002AFAD170477047002001E001C1121F7A
:104FE000002AFBD17047000000B58BB00AA8FBF780
:104FF00013FD0AA8032100220592CDE9062108909D
:10500000052080210C22094BCDE90132CDE90310A6
:1050100002200023064A07A100900A48FCF7E8F99D
:105020000AA8FCF7E5F800200BB000BDF40300204F
:1050300005030008417070205461736B2053746144
:1050400072740000040100204C8A00200C00000053
:1050500080000000000200004C8C00200A000000CC
:10506000400100008C8D00200C000000800000003A
:10507000000200008C8F0020800000000002000071
:1050800064000000400600008C9100200B0000002E
:105090000A000000CC9700200C00000080000000F7
:1050A0000002000040000000E80300000A000000C9
:1050B000CC9900200C0000008000000000020000DD
:1050C00011000000880000000B0000000A00000032
:1050D000549C00200C000000800000000002000032
:1050E0001100000088000000901400000C5100081E
:1050F00000000020E8000000C84F0008F45100083C
:10510000E800002030A70000D84F00080000000091
:105110000102030401020304060708090204060849
:10512000000000000000000000000000000000007F
:10513000000000000000000000000000000000006F
:10514000000000000000000000000000000000005F
:10515000000000000000000000000000000000004F
:10516000000000000000000000000000000000003F
:10517000000000000000000000000000000000002F
:10518000000000000000000000000000000000001F
:10519000000000000000000000000000000000000F
:1051A00000000000000000000000000000000000FF
:1051B00000000000000000000000000000000000EF
:1051C00000000000000000000000000000000000DF
:1051D00000000000000000000000000000000000CF
:1051E00000000000000000000000000000000000BF
:0451F00000000000BB
:0400000508000131BD
:00000001FF
